:10000000C01500202D1A0000BB4C0000011A000092
:10001000011A0000011A0000011A0000000000008F
:10002000000000000000000000000000FD160000BD
:10003000011A000000000000A9160000011A0000CB
:10004000AD170000AD170000AD170000AD170000A0
:10005000AD170000AD170000AD170000AD17000090
:10006000AD170000AD170000AD170000AD17000080
:10007000AD170000AD170000AD170000AD17000070
:10008000AD170000AD170000AD170000AD17000060
:10009000AD170000AD170000AD170000AD17000050
:1000A000AD170000AD170000AD170000AD17000040
:1000B000AD170000AD170000AD170000AD17000030
:1000C000AD170000AD170000AD170000AD17000020
:0C00D000AD170000AD170000AD170000D8
:1000DC0053B94AB9002908BF00281CBF4FF0FF31A3
:1000EC004FF0FF3000F00CB8ADF1080C6DE904CE08
:1000FC0000F008F8DDF804E0DDE9022304B07047F5
:10010C00704700BF2DE9F04786468C460846089E8E
:10011C00154674461946002B40F0C2808542B2FA4F
:10012C0082F245D94AB1C2F1200300FA02FC2EFA40
:10013C0003F3954043EA0C0C94404FEA154EA8B2D9
:10014C00BCFBFEF8230C0EFB18CC08FB00F943EAB1
:10015C000C43994528D9EB1808F1FF3704D299457F
:10016C0002D9A8F102072B44A3EB0903A4B2B3FBF9
:10017C00FEFC0EFB1C330CFB00F044EA0344A042D3
:10018C0014D92C190CF1FF3304D2A04202D9ACF1D2
:10019C0002032C44241A43EA07401EB1D440002326
:1001AC0034607360BDE8F0874746DDE76346F1E7EE
:1001BC0092BB431B01214FEA154EAFB2B3FBFEFCC1
:1001CC00200C0EFB1C330CFB07F840EA034398454C
:1001DC0062D9EB180CF1FF3004D2984502D9ACF17E
:1001EC0002002B44A3EB0803A4B2B3FBFEFC0EFBF2
:1001FC001C330CFB07F744EA0344A7424ED92C19D5
:10020C000CF1FF3304D2A74202D9ACF102032C4407
:10021C00E41B43EA0040C0E7C2F1200320FA03F1DB
:10022C00954090402EFA03F303434FEA154EAFB2BC
:10023C00B1FBFEFC0EFB1C10190C0CFB07F841EA81
:10024C000041884504FA02F422D969180CF1FF30F8
:10025C0004D2884502D9ACF102002944A1EB080173
:10026C009BB2B1FBFEFC0EFB1C110CFB07F743EA27
:10027C0001439F420ED9EB180CF1FF3104D29F427F
:10028C0002D9ACF102012B44DB1B41EA004192E79D
:10029C006046E3E76146F7E76046A3E76346B7E7E6
:1002AC00834206D916B9002108467BE7C6E900E06F
:1002BC00F9E7B3FA83F78FB9834201D3724508D8B3
:1002CC00BEEB020460EB030301209C461EB9002127
:1002DC0068E73846FAE7C6E9004CF8E7C7F1200CA6
:1002EC00BB4022FA0CF41C432EFA0CF120FA0CF34E
:1002FC00B84001434FEA14490EFA07F5B3FBF9F87D
:10030C001FFA84FE09FB18300B0C08FB0EFA43EAAB
:10031C0000439A4502FA07F240D9E31808F1FF307E
:10032C0004D29A4502D9A8F102002344A3EB0A0394
:10033C0089B2B3FBF9F809FB183308FB0EFE41EA4E
:10034C0003418E452CD9611808F1FF3304D28E4538
:10035C0002D9A8F10203214443EA0040A0FB029811
:10036C00A1EB0E014145CE46434602D306D14D4585
:10037C0004D2B9EB020E68EB04030138002EA6D0B0
:10038C00B5EB0E0261EB030101FA0CFC22FA07F348
:10039C004CEA0303F940C6E9003198E74046C5E74B
:1003AC004346D9E710B50B4804F0FAFA0A4C20463C
:1003BC0004F0A8FF28B921680848BDE8104004F0F3
:1003CC00EFBA074804F0ECFA00214FF4004004F0B7
:1003DC0005F9F9E714590000E05500002459000014
:1003EC003F590000014B1B68184700BF000000205C
:1003FC00014B1860704700BF0000002007B50B468A
:10040C00002102460091034800F014F903B05DF896
:10041C0004FB00BFF10300002DE9F047058B0446F7
:10042C002807904611D4022905F0070540F0CD802D
:10043C00204604F0CCFA78B10138218B042811D86D
:10044C00DFE800F0C3106D85950001290CBF45F065
:10045C00100545F02005258388F31188BFF36F8FB5
:10046C00BDE8F08701F0070AAA4500F0A680002736
:10047C00B9463E46A368002B00F0BD8041F0080150
:10048C00218388F31188BFF36F8FA168002900F0D6
:10049C00BB800D68002900F0B780D1F8048033468A
:1004AC0052462046C047002D76D02B6829461D4663
:1004BC00F0E701F007035A1F012A1BD8002221F094
:1004CC000701062B276889B2C4E9002209D13B46F3
:1004DC0003E0628B013262831B68002BF9D141F07F
:1004EC0002012183204604F072FA00287BD041F0EF
:1004FC00200177E0042B0AD121F0070189B2218376
:10050C00204604F064FA10B141F020012183218BC4
:10051C0001F0070AAA4550D00027B946AAE723697B
:10052C0021F0070141F00601062DD3F8009021833C
:10053C002DD1B9F1000F40D041F00801218388F38F
:10054C001188BFF36F8F3A492046C84729E021F044
:10055C000701236941F0040189B2042DD3F80490FA
:10056C002183E6D000273E464FF0040A82E721F0B3
:10057C000701236941F0050189B2052DD3F80890D4
:10058C002183D6D000273E464FF0050A72E700279C
:10059C003E464FF0060A6DE72B4687E7B9F1000F90
:1005AC00D1D14FF02003EFF3118883F31288BFF3FE
:1005BC006F8F238B23F008032383258BEA062ED51C
:1005CC0025F01003238305F007056669218B002EA7
:1005DC00BFF66FAF00232768C4E9003321F0070191
:1005EC0041F001012183218B01F0070AAA454FF04C
:1005FC0000097FF43FAF002F9BD041F0080121830D
:10060C0088F31188BFF36F8F002FC7D03D68394630
:10061C0033465246204604F006FA2F46F4E7AB0662
:10062C007FF51AAF25F02003238305F00705FFE6BD
:10063C005F4A00002DE9F04F9FB0824603911646A9
:10064C001C460025307810B9284600F08BBD731C71
:10065C002528069306D00399D0470028C0F282853E
:10066C0001352BE21822002110A804F04CFB737802
:10067C00252B7DD00023701C98469E469C461F4619
:10068C00014610F8012B2B2A00F0A18000F2988073
:10069C00202A00F09F80232A00F09F802BB19DF828
:1006AC00483043F040038DF84830B8F1000F05D0C6
:1006BC009DF8483043F020038DF84830BEF1000F10
:1006CC0005D09DF8483043F010038DF84830BCF14C
:1006DC00000F05D09DF8483043F008038DF84830E2
:1006EC002FB19DF8483043F004038DF848309DF845
:1006FC00483003F04400442803D16FF386138DF87F
:10070C0048309DF848302A2A43F080038DF8483051
:10071C007FD19DF8492042F001024B1C8DF84920F5
:10072C001A782E2A9DF849200CBF0121002161F373
:10073C0041028DF8492078D15A782A2A6ED001339B
:10074C0000224FF00A0C194611F8010BA0F13007EA
:10075C00092F40F2AF809DF848101492C1F340006D
:10076C0040EAD2700A4660F341028DF848205CE002
:10077C00B21C06928DF84B309DF84930DF0740F1E2
:10078C00548154F8042B0492002A08DA9DF848206E
:10079C0042F004028DF84820049A52420492580701
:1007AC0040F14B8154F8047B002F80F24A819DF874
:1007BC0049306FF341038DF849304FF0FF3740E17A
:1007CC002D2A0DD0302A7FF469AF012358E74FF062
:1007DC00010C55E74FF0010E52E74FF001084FE7BF
:1007EC0001274DE70EFB0272303A0346184610F80B
:1007FC00017BA7F1300CBCF1090FF3D999428FD0D2
:10080C009DF848101392D20F62F341018DF84810F5
:10081C0086E70B4600224FF00A0EE7E79DF84920C9
:10082C0042F004028DF8492002331A786C2A61D008
:10083C0045D8682A4BD06A2A65D04C2A6BD013F85D
:10084C00012B0693782A8DF84B2000F2AD806D2A8F
:10085C006ED8692A00F2A880572A00F28880412AB3
:10086C0004D0A2F14503022B00F29E809DF84A3081
:10087C0002F0DF020421A2F1410861F30203D8F176
:10088C0000029DF849108DF84A3042EB080262F3E1
:10089C00C7110A068DF84910CBB200F1C48003F0E1
:1008AC007802182A40F0AE806FF3C6038DF84930F9
:1008BC0000239DE00CFB0202303A0B4643E7742AFE
:1008CC0025D07A2ABBD19DF8492006210CE05A7814
:1008DC00682A9DF8492006D1012161F3C6028DF8E2
:1008EC0049200233ABE7022161F3C6028DF849209F
:1008FC000133A4E75A786C2A9DF8492001D10421D0
:10090C00EBE70321F0E79DF849200521ECE79DF882
:10091C0049200721E8E7BDF8482022F4F04222F0F4
:10092C00020242F4804242F00202ADF84820DFE7B6
:10093C006E3AD3B201229A4040F282431A429DF899
:10094C00493038D112F0240F60D1D1072CD59DF845
:10095C004A2003F07803A3F1400C032161F3020257
:10096C00DCF100038DF84A2043EB0C0340E0A2F1CC
:10097C005801C9B2012000FA01F111F4624F7FF461
:10098C0075AF40F6010319429DF8493019D111F4A5
:10099C00043F09D09DF84A2060F3020203F078036B
:1009AC00402B8DF84A2083D19DF8483043F0010349
:1009BC008DF848307CE79DF84A20022161F3020251
:1009CC00ECE79DF84A10022003F0780360F3020173
:1009DC00402B8DF84A1002BF9DF8481041F00101E0
:1009EC008DF84810632A7FF463AF003B18BF0123D6
:1009FC009DF84820C2F340010B4363F341028DF88C
:100A0C004820B9E613F0380FCED151E79DF84A20B3
:100A1C00032113F0780F61F302028DF84A2014BF02
:100A2C0001230023E4E70123E2E79DF94820002A93
:100A3C00B4BF139A4FF0FF32B0E699077FF5BDAE05
:100A4C00149F9DF849100023CDE913339DF84A30CB
:100A5C0003F00702042A07D18A0705D49DF949201F
:100A6C00002AACBF06270D2703F00703012BC1F3A7
:100A7C00C30133D1CB1E042B04D8DFE803F021468D
:100A8C0046212100236801294FEAE372CDE9103297
:100A9C001CD19DF94030DA17CDE9103204349DF8A1
:100AAC00483007939B0750D0069B0399324650461B
:100ABC0004F0DBF80028C0F255830544069EC1E51E
:100ACC0054F8043BDA17CDE91032E8E70229E5D1F6
:100ADC001AB243F3C033CDE91023DFE7022B24D144
:100AEC00CB1E042B04D8DFE803F0181010181800E4
:100AFC00012954F8043B4FF0000214D00229CDE92F
:100B0C001032CCD19BB21093C9E7073424F0070400
:100B1C00F4E80223CDE91023C1E754F8043B109309
:100B2C0000231193BBE7DBB2CDE7042B08D10734CC
:100B3C0024F00704D4E900230834CDE91023AEE7F0
:100B4C00032BACD154F8043BDDE79DF84BB0BBF163
:100B5C00780FB3D8BBF1570F49D8BBF1250F00F074
:100B6C009180BBF1240FA9D9BBF1410F03D0ABF19C
:100B7C004502022AA2D8DDE91012002AC0F2368101
:100B8C00079B180700F13581C3F300194FEA491987
:100B9C00C2F30A50C2F31302002840F02D8151EA2F
:100BAC00020614BF01260026D20242EA5152C902A3
:100BBC00BBF1460F40EA010E42EAE07C08BF4FF061
:100BCC00660B5EEA0C0CCDE90C1200F09981002E3C
:100BDC0040F044810D9A42F00042A0F2FE380D9292
:100BEC000020DDE90C1206464FF0050C50E1ABF18C
:100BFC005802202A3FF662AF01A050F822F000BF45
:100C0C00970D0000C90A0000C90A0000C90A0000BB
:100C1C00C90A0000C90A0000C90A0000C90A00007C
:100C2C00C90A0000830B0000C90A00001B0D00005C
:100C3C002F0D0000830B0000830B0000830B0000C2
:100C4C00C90A00002F0D0000C90A0000C90A0000E3
:100C5C00C90A0000C90A0000D10D0000970D000060
:100C6C009D0D0000C90A0000C90A0000970C000085
:100C7C00C90A0000970D0000C90A0000C90A00004B
:100C8C00970D000003995846E6E4002F109E3ADBBE
:100C9C003946304604F023F83718002E3FF40EAFD7
:100CAC004FF000099DF84A3013F01002059200F045
:100CBC004E82023013F04003DDF84C80089318BFCD
:100CCC00149BCDF81C80404418BFC018049B002B0B
:100CDC0040F358829DF848201B1A04935307C2F323
:100CEC00800B00F14F82500640F13F82B9F1000FAA
:100CFC0007D003994846D0470028C0F2338201350B
:100D0C00D946302232E2304603F0E2FFC4E7109BB2
:100D1C008DF85C304FF000090DF15D0717AE012026
:100D2C00C0E7079B1E0758BFC3F30019DDE910236A
:100D3C0054BF4FEA49194FF02B09002B06DA5242E7
:100D4C0063EB4303CDE910234FF02D090DF175032F
:100D5C000093DDE9100117AB12AA03F040FF064621
:100D6C00002F0CDB9DF848200DF175039B1B6FF3D6
:100D7C0086129F428DF8482001D9FB1A1393002E3E
:100D8C003FF49CAE0DF1750756E04FF00009DDE71E
:100D9C001098002800F0D6810DF17503009312AA6B
:100DAC0017AB002103F01BFFBDF84A3003F0EF0333
:100DBC0043F4F04343F010030646ADF84A304FF0CD
:100DCC000009CDE7109B07293FF678AEDFE801F06C
:100DDC000C04060C08080C0C1D706FE61D806DE6EB
:100DEC00EA17C3E9005269E61D6067E64FF02D096A
:100DFC00CEE64FF02B09CBE640F2FF76B0422AD17B
:100E0C000A43ABF141031ED11A2B35BF4923692389
:100E1C004E216E2134BF462266228DF85C309DF83F
:100E2C0048308DF85D106FF386138DF85E208DF8C9
:100E3C0048300DF15F0717AEB81BB9F1000F3FF446
:100E4C0031AF01302EE7192B8BBF6E234E2361215E
:100E5C0041211A46E1E70026A6E60138491852411D
:100E6C00002AFADACDE90C12B4E6490841EAC2715B
:100E7C005208B2F1333F404608F10108F5D20CFBA1
:100E8C0002FEA1FB0C1200F102087244013E01208B
:100E9C0018F1020FE9DB08B1CDE90C12B8F1000F23
:100EAC00DDE90C212FDCC8F1040008F11C08A0F1CD
:100EBC00200CC24021FA00F301FA08F80BF0DF0015
:100ECC0042EA080221FA0CFC472842EA0C02089379
:100EDC003AD1F31C01DBB7422BDAABF10203002F42
:100EEC005FFA83FB7FDD9DF84800800607F1FF3732
:100EFC0079D43B1E18BF0123059307F101082DE09F
:100F0C004FF000086CE6023241F100010CA8CDE96B
:100F1C000C2103F035FEDDE90C2108F1FF38013618
:100F2C0092184941002908F1FF38F9DACDE90C2172
:100F3C00B4E79DF848309906A7EB060751D43B1E41
:100F4C0018BF0123059304E00023BBF1660F059342
:100F5C00D3D117EB06084FF0660B46D4B8F1100F3F
:100F6C00A8BF4FF0100810200B904FF0006100202C
:100F7C00CDE90E01DDE90E03B8F1000F38D1089967
:100F8C00121841EB0301B1F1805F3FD2CDE90C2186
:100F9C00079BBBF1660F03F0200240F0B280002EDD
:100FAC003FDC30218DF85C10002A63D1002F40F318
:100FBC00A8812E228DF85D2086B17242BA42A8BF5C
:100FCC003A469DF84A101392002AA7EB0207D4BFA9
:100FDC000022012262F345118DF84A100DF15E08D2
:100FEC0037E00023AEE7002386E74FF00008BAE7AE
:100FFC00400840EAC3705B08CDE90E030EA80992C5
:10100C0008F1FF3803F0BCFD099AB3E7520842EA35
:10101C00C1720CA84908CDE90C21013603F0B0FDD2
:10102C00B6E70DF15C080B99002909DD0BA90CA89A
:10103C00079203F0BDFD013E08F8010B079AF2D1AF
:10104C0013969AB9002F40F35A812E2108F8011BF0
:10105C000026002F17DD0B9A002A14DD0BA90CA813
:10106C0003F0A6FD013F08F8010BF2E72E2208F869
:10107C00012BEDE72E228DF85D20002EAED0002F37
:10108C009BDC0DF15E08059B002B4ED11497474657
:10109C000BF0DF02452A23D1002EBABF76422D2356
:1010AC002B23632EC8BF64217B70D1BFBA1CB6FB47
:1010BC00F1F3FA1C03F13000C8BF01FB13664FF0CB
:1010CC000A01C8BFB87087F800B0B6FBF1F3174639
:1010DC0003F1300001FB1363303307F8020B53703C
:1010EC00139B002B2CDC149B002BD4BF002301235F
:1010FC009DF84A2063F3861200238DF84A203B703A
:10110C0099E60BA90CA8079203F052FD079A8DF8EB
:10111C005C00302818BF06F1FF3612B9002F40F3DF
:10112C00F0802E228DF85D2058E7474608F1FF38F5
:10113C0017F8012C302AF8D02E2A08BF4746A7E70B
:10114C000123D5E7704F81467E1F0520AAE51A07BB
:10115C0048BF0130AEE5104609920399D0470028EC
:10116C00099A05DA1FB0BDE8F08F2022DDF810B027
:10117C00594600290BF1FF3BEDDC049BCDF810B078
:10118C002B445D1AB9F1000F05D003994846D0479E
:10119C000028E7DB0135089B002B75D09DF9493001
:1011AC00002B28DBB3469BF80000A0F13003092B81
:1011BC00D9460BF1010B3FD99DF84A30AE1B99066D
:1011CC004E4407D44246002A08F1FF3839DC079B0D
:1011DC0033449E1A99F800002E280AD10399D0475F
:1011EC000028BFDBB8F1000F06F101062FDC09F176
:1011FC0001094D4635E0B14699F800007028C84603
:10120C0009F1010913D1AE1B149D46443544AB1BA7
:10121C00002B31DC03993B464246504603F025FD3A
:10122C0000289FDB3044049E0546064462E0039987
:10123C00D0470028E0DA95E70399D0470028B2DAC6
:10124C0090E703993020D0470028BBDA8AE703994E
:10125C003020D04708F1FF38C2E70399D047002867
:10126C0080DB2878A0F13003092BA84605F1010595
:10127C00F3D9A6EB0906C7E703993020D04700281D
:10128C00FFF670AF0136C2E79DF84A30DA0601D49A
:10129C001B0706D503993020D0470028FFF662AF14
:1012AC000135059B3BB103999DF84B00D0470028B5
:1012BC00FFF658AF0135A84406E003993020D0471B
:1012CC000028FFF64FAF0135A8EB0503002BF4DC2B
:1012DC0003993B463246504603F0C7FC0028FFF604
:1012EC0041AF28449FE703992020D0470028FFF600
:1012FC0039AF0135731B002BF5DCFFF7DFBB16464E
:10130C00C1E60DF15D08BEE67659000001F082BC25
:10131C002DE9F84305464FF02003EFF3118683F3D4
:10132C001288BFF36F8F0E4B0E4F1C68DFF838809E
:10133C004FF00C092CB986F31188BFF36F8FBDE801
:10134C00F883D4E90123002D18BF13462BB198F86C
:10135C00142009FB02F2B85C98472468EAE700BF46
:10136C0008020020FC0100208C03002070B5194BF2
:10137C001C7DBFF35B8F04F01F0301229A40164BB8
:10138C00610903EB8103D04353E8001F01EA000518
:10139C0043E80056002EF7D1BFF35B8F0A4213D0FF
:1013AC000E4B0F4D8BB10C236343EA18E85C51785C
:1013BC0003F0C1FC0020FFF7ABFF0C235C432A19A0
:1013CC0000232B51C2E9013370BD83F31188BFF3A5
:1013DC006F8FEFE78C03002010020020434D0000BC
:1013EC00FC0100202DE9F041354B07461D7D4FF0E7
:1013FC002003EFF3118883F31288BFF36F8F0C2453
:10140C00304B314E6C431A19195D00294CD007CA68
:10141C0006EB040C8CE8070000221A5588F311889F
:10142C00BFF36F8F0C236B43F218F05C002839D09C
:10143C007B1C10D0D2F808C0244C254A4FF4004035
:10144C000021ECFB004100232046FEF741FE012168
:10145C00381A04F052F803F003F80120FFF758FF94
:10146C00BFF35B8F1B4B6A0903EB820305F01F0173
:10147C0001228A4053E8000F104343E80001002981
:10148C00F8D1BFF35B8F144B3BB10C2303FB05F07E
:10149C003318305C597803F042FCFFF767FF02F019
:1014AC00F3FF0120BDE8F0810146284600F016F854
:1014BC000028B3D007C8344484E80700AEE700BF67
:1014CC008C030020F0010020FC0100203F420F00A3
:1014DC0040420F00100200202B4D00002DE9F04F70
:1014EC0085B00E4603A900F043F81E4B039DD3F8BC
:1014FC0000A0DFF87480431E1BB203EB43030446C9
:10150C0005EB83054FF400474FF0000B24B9A146BF
:10151C00484605B0BDE8F08F6868144AC446594681
:10152C00E0FB07C100236046FEF7D2FD0190A868DE
:10153C000E4AC4465946E0FB07C100236046FEF73D
:10154C00C7FDBAF1FF3FA94601D0824505D9731CEE
:10155C00DED0019B1844B042DAD9013CA4B20C3D58
:10156C00D4E700BF040000203F420F0040420F00B0
:10157C0008B9024B0B600020704700BFC857000031
:10158C00014910220A60704710ED00E072B640402D
:10159C0080F31188BFF36F8FBFF34F8F30BF62B6EC
:1015AC00BFF36F8F704700BF72B6494081F311884B
:1015BC00BFF34F8F20BF80F3118862B6704700BF16
:1015CC0040B2002807DB044A4109012300F01F0048
:1015DC00834042F82130704700E100E0054B42099E
:1015EC0000F01F0053F82220012303FA00F01040F2
:1015FC00704700BF00E100E040B20028A8BF00F136
:10160C00604001F10101B8BF064B4FEA4111ACBF7C
:10161C0000F5614000F00F00C9B2B4BF195480F856
:10162C000013704714ED00E030BFFFF7FDBF00BFA3
:10163C000B4A08B50B4B22F07F029A60BFF34F8F19
:10164C00BFF36F8FD3F8882022F47002C3F8882080
:10165C0002F09EFB03F042F800F0D6F902F0DCFB3E
:10166C000000000000ED00E0094A0A49936809688F
:10167C009967094958674B6843F080534B600023C6
:10168C0083F31188BFF36F8F9368986F704700BF17
:10169C008C030020F858000000ED00E012498A6825
:1016AC004FF030001044EFF3098C80E8F01F20203D
:1016BC0080F31288BFF36F8F0C4F4FF00066CA692E
:1016CC008A603E60506F0023536780F3118804B525
:1016DC00104600F035FABDE8044002F1300090E805
:1016EC00F01F8CF3098870478C03002004ED00E098
:1016FC001EF0040F0CBFEFF30880EFF30980816933
:10170C0011F8021C0229FFD001B503F0C8FA01BD83
:10171C0042F8203C009B42F81C3C0A49019B42F8D1
:10172C00183C029B42F8143C21F001014FF08073ED
:10173C0042F8043C42F8081C0023203A0265436737
:10174C00704700BFC7490000094A0346906870B152
:10175C0013F1160F406E05D0A0F140029A4205D845
:10176C00834203D2814228BF00207047002070477B
:10177C008C03002008B5094B98600D46144600F008
:10178C00DFF9204685F30988002163B681F31188BF
:10179C00BFF36F8F0022002303F00FF98C0300209E
:1017AC0001B572B60B4A906900281EBF00219161E9
:1017BC0003F0D8FD62B6EFF30580A0F110004FEAFC
:1017CC00C0000549014409C99847BDE801400349D7
:1017DC00084700008C030020F8550000ED170000AE
:1017EC00044B9968D869884203D003494FF0805262
:1017FC000A6070478C03002004ED00E070B51D4BAF
:10180C0015469A6A9A6A9A6A9207064622D5586BC6
:10181C009A6A14061ED519B19A6A22F080029A624D
:10182C009A6A9A6A9A6A134C12F0100F15D19B6A35
:10183C00990712D40020A36A0E4A9B0642BF636A22
:10184C0023F400536362936A43F0FF039362002313
:10185C002B7070BD6FF01500E2E763681A05E9D5CF
:10186C003146FFF771FF0028E4D080F3098802208D
:10187C00E1E700BF00ED00E00D4B9A6A9A6A9A6AA4
:10188C00920508D59A6B9A6A120404D518B19A6A13
:10189C0022F400429A629A6A9A6AD205044A58BFA4
:1018AC009B6A936A002043F47F43936208707047ED
:1018BC0000ED00E070B54A4B5B688AB00546C3F397
:1018CC000803002686F31188BFF36F8F02F07F4068
:1018DC00B0F17F4F11D102F00C0008280DD0100789
:1018EC004CBF0D4601260022033B8DF80720032B2D
:1018FC004DD8DFE803F00465696D3546F3E7384BE6
:10190C00DA6A910743D4DA6A002A40DBDA6A5200B9
:10191C003DD55A69A96942F480725A61BFF34F8F61
:10192C00BFF36F8F5A6931F8021C22F480725A612E
:10193C00BFF34F8FBFF36F8F4DF60272914209D0F8
:10194C009A6AD2B242B10DF1070201212846FFF783
:10195C0055FF0AE02C681BE09A6A12F47F4F06D000
:10196C000DF107010120FFF787FF044610E09A6A8A
:10197C00B2F5803F0BD39A6A9A6A9A6A9A6A9A6A03
:10198C009A6A9A6A6FEA02426FEA12429A620024D9
:10199C009DF8073093B92022294602A803F0A8F934
:1019AC00099BBEB1C3F3080222B96FEA53236FEA55
:1019BC004323099302A9204603F06FF90AB070BDC6
:1019CC000DF107020021C1E70DF107010020CAE764
:1019DC00034BD0E723F4FF7323F00103E9E700BFC7
:1019EC0000ED00E0024A536943F010035361704765
:1019FC0000ED00E0EFF30880EFF3098101B57246CA
:101A0C00FFF758FF01BD00BF044800232021C21876
:101A1C000133272B82F80013F9D1704700E100E065
:101A2C00002080F31488BFF36F8FFFF76FFC00204A
:101A3C000D490860BFF34F8F0C4880F3088800F005
:101A4C002BF8202080F3118809484FF404614018CA
:101A5C0080F30988EFF314800221084380F3148883
:101A6C00BFF36F8FFFF7E4FD94ED00E0C01500208D
:101A7C00000800200749D1F890200023C2F3072268
:101A8C001846934200DB7047C1F89830C1F8A000AB
:101A9C000133F6E700ED00E008B572B6002383F3DE
:101AAC001388FFF7E7FF144B4FF0FF32C3F8802089
:101ABC00C3F88420C3F88820C3F88C20C3F8902086
:101ACC00C3F89420C3F89820C3F89C20C3F8802155
:101ADC00C3F88421C3F88821C3F88C21C3F8902162
:101AEC00C3F89421C3F89821C3F89C2162B6BFF3C4
:101AFC004F8FBFF36F8F08BD00E100E0084B9B6870
:101B0C0083420BD1EFF3058343B1064B5A6842F085
:101B1C0080525A605A6A22F400425A6202F07EBD28
:101B2C008C03002000ED00E0024B034A0348012126
:101B3C0000F070B80000012000000020C857000021
:101B4C00426E054B403A1A60044A4021C3E9011227
:101B5C001846012100F068B81402002000000B1593
:101B6C00F0B5204E00258D4239DA446874B353B178
:101B7C0004F1FF3C14EA0C0F2FD11F2C2DD9076850
:101B8C001CEA070F29D1202C0768D0F808C05FFA8F
:101B9C0082FE1ED9B4F1004F1DD8013CB4FA84F476
:101BAC00C4F11F046400BEF1070F4CEA040C14D8F6
:101BBC0027F01F04144344F01004C6F89820C6F80C
:101BCC009C404CF00104C6F8A040013201350C30A9
:101BDC00C9E70824E7E73E24E5E76FF01502104655
:101BEC00F0BD00BF00ED00E0044B0522C3F89420CB
:101BFC00BFF34F8FBFF36F8F704700BF00ED00E056
:101C0C00BFF35F8F024B0022C3F89420704700BFD4
:101C1C0000ED00E010B5034C01232278FFF7A0FF84
:101C2C00207010BDC403002008B5094A00231278A7
:101C3C00FFF796FF10F1160F02D0064A072800DDB9
:101C4C0008BDC2F89800C2F8A0300130F6E700BF1A
:101C5C00C403002000ED00E014490868082810B502
:101C6C0021D8FFF7CDFF124C49680022904201F1B8
:101C7C000C0105D10F4B1870FFF7B6FF002010BDFB
:101C8C00C4F8982051F80C3C23F01F03134343F085
:101C9C001003C4F89C3051F8043C43F00103C4F821
:101CAC00A0300132E2E74FF0FF30E8E7D4570000F4
:101CBC0000ED00E0C4030020014B1860704700BF2A
:101CCC00080000204FF02003EFF3118283F31288F9
:101CDC00BFF36F8F06490123C1F840354FF08041A7
:101CEC00C1F8783582F31188BFF36F8F00207047ED
:101CFC0000E001404FF08043C0B2C3F81C05BFF3B5
:101D0C004F8F0549054BCA6802F4E0621343CB6060
:101D1C00BFF34F8F00BFFDE700ED00E00400FA05B4
:101D2C0020B1034B800143F001031847704700BFFB
:101D3C00C0570000084B70B5C31A0D4607499B10DD
:101D4C00044659430648402203F017F82B46014637
:101D5C002046BDE87040184734020020B76DDBB652
:101D6C009855000073B50C4C0C4A4023041B00938F
:101D7C000D460B460A49A41061430646094803F078
:101D8C0029F8011E05DA30462B4602B0BDE870403A
:101D9C00184702B070BD00BF340200204D4E000049
:101DAC00B76DDBB69855000010B54FF02003EFF37C
:101DBC00118483F31288BFF36F8F074A136823F0E3
:101DCC000201DB07116002D4012003F0EBF984F36C
:101DDC001188BFF36F8F10BD84020020002270B5F4
:101DEC00012104461046FFF707FC0F4801F0FAF8F2
:101DFC000E4B984215D103F0C8F926690C493046B0
:101E0C0002F035FE00280BDB0125356424690849F6
:101E1C0004F11C0002F02BFE002801DBE56400201D
:101E2C0070BD6FF00400FBE7751E00000000AD0BE9
:101E3C00F457000070B501460C2309484B43C418F5
:101E4C00D4E90E5600224033A263184402F082FFFC
:101E5C002DB132462B460348BDE87040184770BD83
:101E6C00340200209855000010B1012804D07047AE
:101E7C00034B1B6C5B0701D1FFF7DCBF704700BF46
:101E8C003402002008B54FF02003EFF3118183F3E7
:101E9C001288BFF36F8F124A136843F00200106070
:101EAC00DA0708D481F31188BFF36F8F0120BDE8E6
:101EBC00084001F0A7B84FF08043D3F80C24D3F8B6
:101ECC000C34D307EED5074802F044FF81F3118898
:101EDC00BFF36F8F0020BDE80840FFF7ABBF00BF1A
:101EEC0084020020740200201FB500220123CDE9DA
:101EFC000223094ACDF800D06B46CDF804D002F08D
:101F0C0098FF002805DB4FF480420023684602F05E
:101F1C00BBF805B05DF804FB654E000010B5074C2E
:101F2C0023782BB94FF4A57003F007FB0123237022
:101F3C00BDE81040002001F065B800BFC5030020CB
:101F4C002DE9F0413849BFF35B8F0746012251E878
:101F5C00003F41E800200028F9D1BFF35B8F33B973
:101F6C00324933484B60CB608A6002F093FD7B1E94
:101F7C00012B2BD8012F07D14FF08043D3F81C3401
:101F8C0003F00303012B21D003F0E6F90546F8B961
:101F9C00284B1B78E3B14FF080430222C3F808238F
:101FAC000646DFF894804FF08044D4F81834D4F807
:101FBC001824D20316D503F00303012B01D0012FF3
:101FCC0010D15DB386F31188BFF36F8FBDE8F0813C
:101FDC004FF02003EFF3118683F31288BFF36F8F5A
:101FEC000125DEE7ADB13046FFF7DEFAD4F818353F
:101FFC00002BDAD1D4F80421002AD6D0C4F804314D
:10200C00D4F804310123C4F81835C8F88031A36022
:10201C00CBE70021212002F0E1FAE7E74FF0804303
:10202C000222C3F80423D1E7300200202002002052
:10203C0050020020D807002000E100E008B5074856
:10204C0003F060F938B10648FFF736FE0448FEF796
:10205C00CFF9002008BD6FF01200FBE7C855000057
:10206C00712000000A2838B5074D044604D1AB682E
:10207C000D215B6828469847AB6803485B68E1B262
:10208C009847204638BD00BFC855000030B54068A1
:10209C00057B01F01F04B2F5001F85B044EA45141E
:1020AC0005D1204601F072FA002005B030BD0025A4
:1020BC00B2F5800FCDE9025514D1B3F1007F0CBFFE
:1020CC00042305238DF808300023194602AA204664
:1020DC0001F092F81D4B984235D10121204601F0B8
:1020EC0011FAE1E7B3F1C06F22D0B3F1007F14BF56
:1020FC00012302238DF808308368CB40D907E3D441
:10210C00B2F1A07FE0D104F01F0303F5E0734FF0B0
:10211C00A04252F82330DB07D6D40DF1070529462F
:10212C00204601F09BF90A4B984203D00395CBE76C
:10213C000323DFE7284601F0DFF9044B9842F5D082
:10214C006FF00B00B1E76FF01500AEE70000AD0BC0
:10215C000400AD0B10B501F0BFF9044668B901F0ED
:10216C0093F9084B98420AD10748214601F070F9BF
:10217C00224605210620FFF73FFA002010BD6FF024
:10218C000400FBE70000AD0B99210000430970B57A
:10219C0007D10B4B596821B101250C68094E8540BC
:1021AC0001B970BD8A682A4002D04B683046984706
:1021BC001CB1236821461C46F2E72346FAE700BF10
:1021CC0088020020B05500002DE9FF4147683B7B99
:1021DC0001F01F0545EA43150E4628460DF1030193
:1021EC00144601F03BF914F4403F80460BD12846CD
:1021FC0001F0F4F93D4B984503D19DF8030001F033
:10220C0075F900200CE00023194602AA2846CDE9F6
:10221C00023300F0F1FF354B984204D06FF01500FB
:10222C0004B0BDE8F081804503D19DF8030001F0B6
:10223C005DF9A3034BD540F206332340B3F5837FFE
:10224C0019D00CD8062B17D004D8ABB1022BE5D182
:10225C00042311E0B3F5807FE0D101230CE040F2C0
:10226C000222934227D0B3F5407F26D0B3F5007FEE
:10227C00D4D1022300E007238DF8043084F480339A
:10228C00C3F30043E0068DF8053054BFC4F340138C
:10229C00032321038DF8063011D57A680123B3404E
:1022AC00C2F80835002201A9284601F053F80F4B5B
:1022BC009842A6D0B2E70523DEE70323DCE76203EE
:1022CC0041BF01237A68B340C2F80C35EAE7E30654
:1022DC004FF0000354BFC4F3401403241A4601A961
:1022EC0028468DF8044000F087FFE0E70000AD0BB6
:1022FC0008B543681B68D3F80805D3F80C1501F032
:10230C008DFC034B984214BF6FF00F00002008BDEA
:10231C000000AD0B37B50446002201210320FFF766
:10232C006BF963689D6901AA0021284602F07EFEC4
:10233C00002814DB019B2A681979186802F089FEC1
:10234C0000280CDB60682369064A00F1080101F0E3
:10235C000BFB054B984214BF6FF00F00002003B02D
:10236C0030BD00BF792300000000AD0B0378012BBA
:10237C0008D0022B08D04BB9054B0B6201F11000B1
:10238C0001F062BE034BF8E7034BF6E7034BF4E7AF
:10239C000000AD0B0100AE0B0200AE0B0100AD0B4B
:1023AC002DE9F04F8BB005460C46904601934768DB
:1023BC0006694FF0FF324FF0FF33304601F064FEF8
:1023CC0006F1100A00220023504601F05DFE38464B
:1023DC0001F01EFBDFF8C0B04FF00009C14501D37E
:1023EC0000242EE0237A039313F008014DD112221E
:1023FC000DF11600029102F086FC039B60680199B6
:10240C00069003F0010220688DF8151013F0020FEE
:10241C0002998DF8142008901DD108F1FF334B451B
:10242C0002D9237D5B0718D57ABB202205A9384633
:10243C0001F01AFB584512D0184B984228D06FF077
:10244C000404384601F0F4FA304601F0FDFD204654
:10245C000BB0BDE8F08F0A46E8E74022E6E74FF400
:10246C0080420023504601F00FFE30B1384601F097
:10247C00DFFA2846FFF73CFFE1E7336A5B4504F1DE
:10248C000C04DCD109F10109A8E76FF08504D8E749
:10249C006FF00F04D5E700BF0000AD0B0B00AD0BC8
:1024AC0070B54B79012B20D18B79032B1DD1CD79B4
:1024BC000DB1012D19D10A7912B1022A15D10E22B2
:1024CC000B684468B3F5164F266864D02BD8B3F567
:1024DC00165F63D014D8B3F5966F61D008D8B3F5F6
:1024EC00967F60D0B3F5167F60D06FF0850051E019
:1024FC00B3F5166F5DD0B3F5965FF6D1374B3CE074
:10250C00B3F5E14F58D007D8B3F5615F56D0B3F5AA
:10251C00964FEAD1324B30E047F61224A342E4D175
:10252C004FF4000329E0B3F5613F49D013D8B3F55C
:10253C00963F48D009D84DF6C024A34245D0B3F5F8
:10254C00614FD2D14FF46B0317E0B3F5E13FCCD11F
:10255C004FF0EB7311E0B3F5612F39D008D8214C53
:10256C00A34238D0B3F5E12FBFD14FF0E86304E0BC
:10257C001D4CA342B9D14FF080530469C6F82435E1
:10258C0043681B682A43C3F86C2503C9231D83E8E1
:10259C000300002070BD4FF41D03EEE7134BECE776
:1025AC004FF49E23E9E74FF4A033E6E74FF41C33D6
:1025BC00E3E74FF41D23E0E70D4BDEE70D4BDCE7C3
:1025CC004FF06C73D9E70C4BD7E74FF46503D4E7A6
:1025DC004FF07063D1E74FF08063CEE700B013008B
:1025EC0000A04E0090D0030040420F000050270086
:1025FC0000C0750000F03A0000903A012DE9F74355
:10260C008046002201210220FEF7F6FF0220FEF791
:10261C00D7FFD8F80470D8F810603C680021C4F8D3
:10262C000015C6F80080D7F80C9001AA484602F0B5
:10263C00FDFC051E54DB019BD9F8002019791868A4
:10264C0002F007FD051E4BDB311D4046FFF728FF4E
:10265C000546002844D17B6899071AD506F1180065
:10266C0001F088F8224B98423ED1337EDB0003F117
:10267C00804303F5F83304F10C0204F59071C3F8B0
:10268C001015C3F81425327E01239340194AC2F861
:10269C0004350823C4F800353B7A53B9C4F810311B
:1026AC00D4F810317369C4F834350123C4F83835C3
:1026BC0023607B689A075CBF4FF48073C4F80433C3
:1026CC007B68DB0644BF4FF48003C4F804333369E2
:1026DC00C4F844350023C4F848350123A360E360F3
:1026EC00284603B0BDE8F0836FF00405F8E700BF9F
:1026FC000000AD0B00F00140F8B5044607690D462B
:10270C0002F02AFEB0B92E4B1B789BB16426606890
:10271C0002F036FC00BB012002F035FD013EF6D183
:10272C000021212001F05AFFF0E786F31188BFF356
:10273C006F8FF5E74FF02003EFF3118683F31288C8
:10274C00BFF36F8F6068314602F01AFC90B986F3C4
:10275C001188BFF36F8FEDE74FF02003EFF3118675
:10276C0083F31288BFF36F8F6068314602F008FC68
:10277C000028DAD03B691D70626838691368C3F8A9
:10278C0044050120C3F848050020C3F82001D3F804
:10279C002051C3F858015268D3F85801D20608D515
:1027AC00626812680820C2F800054FF48002C3F872
:1027BC00042301229A6081F31188BFF36F8FF8BD57
:1027CC00D807002070B5012383400E4ABFF35B8FFE
:1027DC00DC4352E8001F01EA040542E80056002ED3
:1027EC00F7D1BFF35B8F4FF4803282400648C0F8BC
:1027FC000823BFF35F8FBFF36F8F0B4214BF012011
:10280C00002070BD980200200010014070B40E49E9
:10281C00D1E90034D01AC31844F1000422F07F46E9
:10282C00C1E90034A6F50013B3F5400F09D2074BEC
:10283C001B681A0A1B069C19054B42F10005C3E9DB
:10284C00004570BC02F030B8D80000209C0200207B
:10285C00E000002011B3BFF35B8F0123104A8340CB
:10286C0052E800CF4CEA030C42E800C10029F7D132
:10287C00BFF35B8F0B4A4FF480338340C2F80433B1
:10288C00094BBFF35B8F1B68BFF35B8FC340DB0748
:10289C0042BF064B4FF40032C3F80021704700BF13
:1028AC0098020020001001409402002000E100E09A
:1028BC000D4B1868010A0006BFF35F8F0B4BD3F862
:1028CC000435181841F10001B3F5801F0AD2084BEA
:1028DC00D3E90023904271EB030303D210F1807013
:1028EC0041F10001704700BF9C0200200010014024
:1028FC00E00000202DE9F74F16461F460446FFF76F
:10290C0061FF0090FFF7D4FFB04271EB070351D287
:10291C003A4B301A67EB0101984271F100016AD20F
:10292C00374B03EB0413D3E902239F4208BF9642B3
:10293C004ED034494FF4803904F1500509FA04F9AA
:10294C00AD00C1F848932046ADB202F063FB26F00F
:10295C007F4B05F1804504F5A8732B4A019305F5CF
:10296C008835DC464FF0030A019B2CF07F4041F880
:10297C002300C1F84493D1F804856FF00200A0EB5A
:10298C000800604420F07F40904221D9286860B153
:10299C00D1F80485A8EB0B0020F07F40B0F5000FB8
:1029AC0016D9204602F036FB174A0AEB080C0AF13E
:1029BC00010AD9E70123154ABFF35B8FA34052E804
:1029CC00000F184342E800010029F8D1BFF35B8FD8
:1029DC000B490C98230101EB0412C2E90267C850A1
:1029EC000D9B5360002520460099FFF733FF2846C6
:1029FC0003B0BDE8F08F6FF01505F4E7010080001F
:102A0C00C800002000100140FDFF7F009402002050
:102A1C0073B5194B194D00244FF0FF304FF0FF31B7
:102A2C00C5F80845C3E902014FF48033C5F80433F7
:102A3C00134B02264FF400320121C5F80463112018
:102A4C00C3F880212246FEF7D7FD1120FEF7B8FD12
:102A5C000C4A0123AB602B6013600B4B0B4A0093A9
:102A6C00019400232046FFF745FF3046FFF768FA34
:102A7C00204602B070BD00BFC8000020001001400D
:102A8C0000E100E09802002019280000FFFF7F0001
:102A9C002DE9F7432F4CD4F8043399070BD5D4F810
:102AAC00043143B12C4A0023C4F80431D4F8043166
:102ABC00136801331360D4F80433DA032AD5BFF357
:102ACC005B8F264B53E8002F22F0010143E80010E6
:102ADC000028F7D1BFF35B8FD30702D4D4F8403171
:102AEC00C3B10025C4F84051D4F84031FFF7E0FEE3
:102AFC004FF02003EFF3118283F31288BFF36F8F33
:102B0C00174BD3E90267B042B94106D282F3118860
:102B1C00BFF36F8F03B0BDE8F0834FF0FF384FF079
:102B2C00FF39C3E90289D3E900101D604FF48033EB
:102B3C00C4F84833C4F84051D4F8403182F31188BA
:102B4C00BFF36F8F0029E5D0009032463B462846F4
:102B5C008847DFE7001001409C020020940200200F
:102B6C00C8000020431C13B522D0012822DD124AD4
:102B7C00124B9042D4BF04461C46FFF799FE104BF3
:102B8C000E49D3E90023801AB0F5000F28BF0024AA
:102B9C0004448C4228BF0C46A2180A4900914FF0FD
:102BAC000000019043F10003FFF7A4FE02B010BD3A
:102BBC00024CE2E70124E0E7FEFF7F00FFFF7F000D
:102BCC00D80000201928000008B5FFF771FE024B51
:102BDC001B68C01A08BD00BFD80000204FF070431E
:102BEC0093F8E02F062A09D1D3F8E83FC3F3031377
:102BFC00033B042B02D8024AD05C7047002070477C
:102C0C00135A0000024AD2F80034002BFBD0704754
:102C1C0000E0014010B502F0A7FA40B14FF080532C
:102C2C00904AD3F82433C3F30423C2F84035FFF79A
:102C3C00D5FF10B18C4B8D4A5A6702F095FA48B10A
:102C4C004FF080534FF08042D3F84432C3F34233F9
:102C5C00C2F83C35FFF7C2FF30B1854AD2F8FC30E0
:102C6C0023F08073C2F8FC3002F07EFA40B14FF0D2
:102C7C0080430022C3F80C21C3F81021C3F8382577
:102C8C00FFF7ACFF20B14FF080430322C3F8A0251F
:102C9C00FFF7A4FF60B1774B0522C3F81026012281
:102CAC00C3F888260022C3F818263F22C3F814263E
:102CBC004FF08053D3F83021511C09BF4FF07043B3
:102CCC00D3F8343193F8E02FD3F8E83F08BFC3F3BF
:102CDC000313062A4DD1033B042B03D8664AD35C5D
:102CEC00002B46D04FF08052644BD2F80414C3F83A
:102CFC002015D2F80814C3F82415D2F80C14C3F814
:102D0C002815D2F81014C3F82C15D2F81414C3F8E3
:102D1C003015D2F81814C3F83415D2F81C14C3F8B3
:102D2C004015D2F82014C3F84415D2F82414C3F873
:102D3C004815D2F82814C3F84C15D2F82C14C3F843
:102D4C005015D2F83014C3F85415D2F83414C3F813
:102D5C006015D2F83814C3F86415D2F83C14C3F8D3
:102D6C006815D2F84014C3F86C15D2F84424C3F893
:102D7C00702502F0F9F948B14FF080534FF08042C2
:102D8C00D3F8583203F04F03C2F8E43E02F0ECF9EA
:102D9C0048B14FF08043D3F80024D20744BF6FF002
:102DAC000102C3F800244FF08053D3F83021062AD7
:102DBC0026D1D3F83431033B042B02D8304AD35CF0
:102DCC0063B1304AD2F83C3743F48063C2F83C37E5
:102DDC004FF08053D3F83031062B11D14FF0805384
:102DEC00D3F83431033B042B02D8274AD35C3BB1D4
:102DFC004FF01023D3F808224FF08043C3F8582526
:102E0C004FF01023D3F80022002A03DBD3F804324E
:102E1C00002B22DA1D4901234FF01020C1F8043594
:102E2C001524FFF7EFFEC0F80042FFF7EBFEC0F8E9
:102E3C000442FFF7E7FE0023C1F80435FFF7E2FE7A
:102E4C00BFF34F8F0A49124BCA6802F4E062134376
:102E5C00CB60BFF34F8F00BFFDE70E4B0E4A1A60DD
:102E6C0010BD00BF0030014000C007400DF0ADBAEE
:102E7C0000ED00E0005000400E5A000000C0004081
:102E8C00095A000000100040045A000000E0014004
:102E9C000400FA05500000200090D00370B5012505
:102EAC000268BFF35B8FB2FA82F3C3F11F03DBB28C
:102EBC0005FA03F422EA040450E8006F964204D1A8
:102ECC0040E8004CBCF1000FF6D1BFF35B8FE7D1AB
:102EDC0001480B7070BD00BF0000AD0B10B503684E
:102EEC00CB40DB0714D401238B400268BFF35B8F0C
:102EFC0043EA020150E8004F944204D140E8001C20
:102F0C00BCF1000FF6D1BFF35B8FEED1014810BDC1
:102F1C000148FCE70000AD0B0400AD0BF7B504460F
:102F2C0018B1012822D003B0F0BD4FF0804302222B
:102F3C00C3F80823C3F80401D3F804210122DA6092
:102F4C00074601238DF8073042F210754FF080468A
:102F5C00CCB1012CE7D1C7B3D6F80C3403F0010384
:102F6C003B70D6F80C34DA0321D516E04FF08043D1
:102F7C000022C3F80803C3F80021D3F800215860DD
:102F8C000DF10707DDE7B7B1D6F8183403F00303EA
:102F9C003B60D6F81834D803C5D59DF80700012836
:102FAC0003D102F0F0F8013DD2D1012CBBD10C4B76
:102FBC0000225A71B7E7D6F81834D903B3D50120DB
:102FCC0002F0E1F8013DF6D1ADE7D6F80C34DB03A5
:102FDC00EDD5012002F0D7F8013DF6D1E7E700BFAF
:102FEC00A0020020044B1A7922B9012218609A80A1
:102FFC000248704702487047A00200200000AD0B49
:10300C000C00AD0B38B510B1012843D038BD4FF0D2
:10301C008042D2F81834D2F81814C8030BD4D2F862
:10302C001434D9070FD5D2F81C349B0708D40223CB
:10303C00C2F80433EAE703F00303012B04D013B105
:10304C000020FFF76BFF00234FF08042C2F81835C9
:10305C000023C2F80431D2F804310223C2F804333D
:10306C00124AD2F8FC0040F08073C2F8FC30104BCE
:10307C001C6844F0010119605D685968491BB1F581
:10308C000A5FFAD31C604FF08043C2F8FC000122A7
:10309C009A60BBE74FF080430022C3F80021D3F8BD
:1030AC000021C3F804031860B0E700BF00ED00E096
:1030BC00001000E010B54FF08043D3F800216AB146
:1030CC000022C3F80021D3F800210122C3F8082301
:1030DC00114B587910B95A711B6898474FF08043BF
:1030EC00D3F8042172B10022C3F80421D3F80421CF
:1030FC00D3F81824D3F81814920704D10122C3F87A
:10310C0018259A6010BD0222C3F80823024BBDE8B3
:10311C0010401B6801201847A0020020034B083008
:10312C0033F81000C0F34010704700BF540000206B
:10313C0070B500F108030C4C34F81330DA05054671
:10314C000E4607D5C3F3432304EBC30254F83330C4
:10315C0052689847A3682BB1E26831462846BDE80F
:10316C007040184770BD00BF5400002010B4124AC4
:10317C00083032F81030D9051BD5C3F3432123F4A2
:10318C00F85322F8103002F10E04002034F8023FFC
:10319C0013F4807F03D0C3F34323994209D0013049
:1031AC002028F3D1002342F83130044810BCFFF73B
:1031BC0095BE10BC704700BF54000020A800002032
:1031CC0038B50246FFF7AAFF094C02F1080540B1D9
:1031DC0034F8153007495B0B03F5A273002041F856
:1031EC0023001046FFF7C2FF002324F8153038BD2A
:1031FC0054000020006000402DE9F34104461D46B8
:10320C0009B34F4F00F1080837F81860B30706D51B
:10321C00FFF784FF18B14B4802B0BDE8F08104F011
:10322C001F039B0003F1A0430978D3F8000726F095
:10323C00020620F00F0046F0010640EA810127F853
:10324C001860C3F800179AB13D4B1778506804F119
:10325C00080633F8161011F0020F0DD00028DAD141
:10326C0033F8162022F01C0242EA870223F81620BB
:10327C00002D3BD13448CFE721F02001C904C90C03
:10328C0023F816100028EBD0032FC4D8526892F8FC
:10329C0000C02FB92D4A0CF5A27C42F82C70DFE748
:1032AC004FEA8C0202F1804202F5C04241EA4C31F5
:1032BC00D2F8100520F00300C2F81005D2F8100562
:1032CC0020F4473020F44070C2F810052002D2F8E8
:1032DC0010E500F4F85040EA074040EA0E0041F0D7
:1032EC00200123F81610C2F81005B9E7D5E90067DC
:1032FC002046FFF73BFF002EBCD0114DD5E9002333
:10330C00964201D19F4219D011480DF10701FFF7E8
:10331C00C5FD0D4B98427FF47FAF9DF8072045F813
:10332C00326005EBC20308345F6035F8143043EAB1
:10333C00422343F4807325F814309BE70022EEE718
:10334C00540000200400AD0B0000AD0B00600040E9
:10335C00A8000020F8B5044689B33A4E00F10807DE
:10336C0036F81750AB0704D4FFF7D8FE08B136482F
:10337C00F8BD15F01C0F4B7824D104F01F0000F59C
:10338C00E07E4FF0A04C5B005CF82EC091F802E0A0
:10339C0009782CF4E16C43EA8E032CF0070C43EA19
:1033AC000C0343EA012300F5E0704FF0A04143F019
:1033BC00010345F0030541F8203026F8175022B9D7
:1033CC002248D5E7012BD8D1D1E71E4E04F10807CE
:1033DC0036F817008307CAD592F800C061468900F9
:1033EC0020F0200001F18041C00401F5C041C00C67
:1033FC0026F817000023C1F810355578002DDFD0C2
:10340C00D1F81035927823F4981323F4F853C1F8BB
:10341C001035D1F810E5230203F4F8532D0443EAD8
:10342C000E0305F4403512052B4302F4801240EADA
:10343C004C30134340F0200026F81700C1F810352B
:10344C00BEE700BF540000200400AD0B0000AD0B24
:10345C00014BC3E9020170475400002008B5024635
:10346C00FFF75CFE38B1054B0548083233F81230D3
:10347C005B0B0B7008BD0348FCE700BF5400002039
:10348C000000AD0B0400AD0B38B50F4C94F8585040
:10349C00BDB94022294604F1100001F034FC06208D
:1034AC00FEF78EF8094B0A48C3F87C51D3F87C21FF
:1034BC004FF00042C3F80423012384F858306365AD
:1034CC0038BD0448FCE700BF5400002000600040F9
:1034DC000000AD0B0500AD0B034B93F85800003802
:1034EC0018BF0120704700BF54000020014601485E
:1034FC00FFF7F4BCA400002001460148FFF7CEBC46
:10350C00A400002010B50246FFF708FE02F10804E3
:10351C001C4B33F81430E0B113F0020419D15B0BDF
:10352C009A0002F1804000F5C24002F1804202F59F
:10353C00C04204600068D2F8100540F00100C2F8E7
:10354C00100529B1012202FA03F30F4AC2F8043321
:10355C0010BDC3F38203042B10D0052B10D04FF0F9
:10356C00A043D3F8101502F01F03D94001F001015C
:10357C000231BDE81040104601F016BE0321F8E7F9
:10358C000221F6E7540000200060004008B5024616
:10359C00FFF7C4FDC0B102F108010E4B33F8113036
:1035AC00990711D45B0B01229A409B000A4903F145
:1035BC00804303F5C043C1F80823D3F8102522F04B
:1035CC000302C3F8102508BDBDE8084000211046D1
:1035DC0001F0EABD540000200060004010B50D4B16
:1035EC0000F10802044633F81230DB070FD5FFF761
:1035FC00CDFF204604F01F04FFF7E2FD04F5E07454
:10360C004FF0A043022243F82420034810BD034886
:10361C00FCE700BF540000200000AD0B0400AD0B14
:10362C002DE9F74F4F4B50485049002501222C46AD
:10363C001E6836B1D0F8046316421EBF1C601E68AB
:10364C00154304338B424FEA4202F1D1464BD3F877
:10365C007C31BBB14FF0A046D6F820350193C6F8AB
:10366C00203501AF4FF00108019C8CB93E4BC3F8DB
:10367C007C41D3F87C31D6F820350193C6F820353F
:10368C00002BEED10124002D53D103B0BDE8F08FF7
:10369C0094FAA4F4B4FA84F4354A04F10803E0086B
:1036AC0032F813103B5C04F0070208FA02F223EA2A
:1036BC0002033B54A30003F1A049C1F3820AD9F8D9
:1036CC000027CB06D346C2F3014218D559462046F3
:1036DC005FFA82FAFFF72CFDD9F80037C3F30143E8
:1036EC009A4507D10021204601F05EFD5146204647
:1036FC0001F05AFD08FA04F4C6F82045B4E7022A92
:10370C000CD10321204601F04FFD0AF00503012BDB
:10371C00F0D159462046FFF70BFDEBE7022120467E
:10372C0001F042FDBAF1030FF3D0032AE2D18A452E
:10373C00EEE795FAA5F3B3FA83F304FA03F29B00D0
:10374C0003F1804303F5C04325EA0205D3F81005C5
:10375C00D3F81015C0F30420C1F30141FFF7E8FCC6
:10376C0091E700BF00610040006000402061004014
:10377C005400002001460148FFF790BBB000002028
:10378C0013B53B4B01930023C0F80431D0F804214E
:10379C00C0F82431D0F82421C0F81C31D0F81C21F9
:1037AC00C0F80831D0F80821C0F800324B6381F81A
:1037BC002F300123036291F82D209A4218BF8360A9
:1037CC004B6B8A6A934204460ED24A6AD35CC0F8A9
:1037DC001C350B6803B340F286238B608B6825483D
:1037EC00C4F8043302B010BD91F82C3013B101238E
:1037FC00C361EEE70B6A13F0400F4FF0010316BFE5
:10380C00C361436181F82D30E3E7204601F0DAFC17
:10381C0028B1019B013B0193019B002BF5DC91F836
:10382C002F305BB91348019B002BDBDC0023C4F861
:10383C00003505231048C4F80035D3E7D4F8C43458
:10384C00C4F8C4348BB10D4A0B4813F0010F18BFE8
:10385C00104613F0020F02F1010218BF104613F0CC
:10386C00040F074B18BF1846DDE70348DBE700BF22
:10387C00A08601000000AD0B0100AD0B0000AE0BEB
:10388C000200AE0B13B5334B01930023C0F8043187
:10389C00D0F80421C0F82431D0F82421C0F81C3110
:1038AC00D0F81C21C0F80831D0F808214B6381F8FE
:1038BC002F308B6A012B044617D10B6A5B0614D48C
:1038CC000223C4F800320123236291F82D20022A2E
:1038DC0018BF23600B688BB140F286238B608B681A
:1038EC001D48C4F8043302B010BD0123E9E720469B
:1038FC0001F068FC28B1019B013B0193019B002B5B
:10390C00F5DC91F82F305BB91348019B002BEADCF6
:10391C000023C4F8003505231048C4F80035E2E74D
:10392C00D4F8C434C4F8C4348BB10D4A0B4813F02A
:10393C00010F18BF104613F0020F02F1010218BF5D
:10394C00104613F0040F074B18BF1846DDE7034869
:10395C00DBE700BFA08601000000AD0B0100AD0B42
:10396C000000AE0B0200AE0BF8B50679254D4FF0FA
:10397C003C0E0EFB06FE05EB0E0494F82E70002F89
:10398C003DD1D0F800C045F80E20A760636084F8E4
:10399C002D7084F8317084F830704B7B84F838309B
:1039AC008B7B84F839308BB90B6803F01F034FF015
:1039BC00A04403F5E07340F20C6744F823704B68A5
:1039CC0003F01F0303F5E07344F82370CB7B2BB992
:1039DC00D1E90043CCF80845CCF80C358B68CCF811
:1039EC00243522B1006840F30730FDF7E9FD3C2394
:1039FC0003FB06550448012385F82E30F8BD034817
:103A0C00FCE700BFA80200200000AD0B0500AD0BC9
:103A1C00036802790521C3F80015044B3C2101FB16
:103A2C000233022283F82E20704700BFA802002028
:103A3C0003680B4A0179C3F80823D3F8002222F05B
:103A4C000302C3F800220022C3F80025054B3C20DA
:103A5C0000FB0133012183F82E1083F830207047CE
:103A6C0086420400A80200202DE9F047314F04796A
:103A7C00D0F800903C2303FB04730D4693F82D30D3
:103A8C00012B944604D10B78012B06D12A4811E066
:103A9C00022B02D10B78012BF8D13C26274BC9F80D
:103AAC00083306FB047696F830302BB1B368244803
:103ABC00C9F80433BDE8F0878CF00403C3F380032A
:103ACC0086F83030C6F820C0A846B8E80F0006F1DA
:103ADC000C0EAEE80F00D8F80030CEF800306B6852
:103AEC00B362EB6873626B78C9F888352B78C4EBDA
:103AFC00041A012B07EB8A0A17D09BB9CCF3401C94
:103B0C003C2303FB0473514683F82CC04846FFF753
:103B1C0037FE3C235C433A193B59002BCAD182F83F
:103B2C003030C7E74FF0010CEAE751464846FFF743
:103B3C00A9FEEEE7A80200200500AD0B86420400AA
:103B4C000B00AD0BF0B5324C324887B0214601F07A
:103B5C0039FB002859D194F82F70FFB9227B931EA2
:103B6C00012B1BD8606AA369984217D1E369636281
:103B7C006369A362236A274884F82D70C3F340134A
:103B8C00032A84F82C3004D107B0BDE8F040FFF7CD
:103B9C00F7BD07B0BDE8F040FFF774BE1E4E0FCE68
:103BAC0001AD0FC533682B6047B31A4AD2F8C43441
:103BBC00C2F8C43413F0020106D001238DF8003092
:103BCC00002384F8303007E013F0040209D00223FC
:103BDC008DF8003084F83010D4E9003168469847ED
:103BEC0013E013F0010305D003238DF8003084F8A3
:103BFC003020F1E704228DF80020E2E7236A8DF8EB
:103C0C0000705B0784F83070E6D507B0F0BD00BFDC
:103C1C00A802002000300040B40200202DE9F04141
:103C2C0000F01F0001F01F0601244FF0A04504FA1C
:103C3C0000F806F5E07200F5E07040F20D63B44058
:103C4C00C5F80885C5F8084545F8203045F82230F8
:103C5C00042001F098FA0927D5F810351C420DD133
:103C6C000420C5F80C8501F08EFA013FC5F80885D3
:103C7C00042001F088FA17F0FF07EDD14FF0A045B2
:103C8C000420C5F80C4501F07EFAC5F8084504205F
:103C9C0001F079FAD5F810350348F34003F001032D
:103CAC00C01ABDE8F08100BF0100AD0B10B5144C7B
:103CBC00144A1549032323616361144BA261E36128
:103CCC004FF4806323620023A3626362E362226683
:103CDC000F4A62661022A266E01D2367E3666367E3
:103CEC0000F0ECFFBFF35F8F0A49204600F0E6FFBF
:103CFC00BFF35F8F2023A371BFF35F8F10BD00BF95
:103D0C00E4020020415A00004A5A0000D803002067
:103D1C00C80300204E5A00000F4B70B553F82040DA
:103D2C00013053F82060A64200D870BDD4E90035AC
:103D3C00284698476DB138B10028B8BF4042EB68AF
:103D4C00FF28A8BFFF201870EA68537843F00103DE
:103D5C0053700834E7E700BFFC58000008B50A4B65
:103D6C00012203201A70FFF7D7FF00F011FE042088
:103D7C00FFF7D2FF00F0F0F8FCF714FB034A137BBB
:103D8C0023F00103137308BDD8070020680100203D
:103D9C0008B50348034A0021121A01F0D9FA08BDEC
:103DAC00C8000020DC07002070B5002386B001227B
:103DBC00CDE90423134E144D01930F22CDE90232A9
:103DCC001249182303FB005506EBC01604464FF4AA
:103DDC00C07000FB04110E4B00954FF4A0723046DE
:103DEC0000F088F8737B0B4AEE6023F004037373C6
:103DFC004FF4046304FB033313442C756B6006B05F
:103E0C0070BD00BFE80000208C0300204010002093
:103E1C001D4000000008002080B50020A6B0FFF770
:103E2C007BFF2D4B83F308882C4D2D4E6B692D4F4A
:103E3C0043F400736B610024E02385F82230EC77A7
:103E4C002C766C76AC7685F820406B6A43F4E023D4
:103E5C006B6285F82340FDF7C5FDFDF791FB4FF034
:103E6C00FF33AB62EB62FDF7F7FEFDF75DFE40F250
:103E7C000113ADF8243006ABB360CDE91F44229496
:103E8C0001F03FFA0120FFF747FF0220164DFFF724
:103E9C0043FF00F015FB154BF56105930123144905
:103EAC000094CDE903434FF480623B46CDE90144D5
:103EBC00284600F01FF86A7B064622F004022846CA
:103ECC006A7301F0B2FA2046FFF76EFF3A463146AC
:103EDC002846FDF74FFC00BF4010002000ED00E02D
:103EEC008C030020693D000068010020555A000039
:103EFC00C01100202DE9FF410E9E06730426467367
:103F0C000D9E867300F158050F46D61DC0E9165557
:103F1C000C9A002526F007064037C0E90655C0E983
:103F2C0019768560C573C56606F1400802920B9A36
:103F3C00019288440A9A009242460446FDF7E8FB37
:103F4C00044B65659B6803B11B6F2367404604B047
:103F5C00BDE8F0818C0300202DE9F043294C2A4D5B
:103F6C0087B02646AE4204F130040FD300F078FA45
:103F7C00244CDFF898904FF4004640F2E737AC42FF
:103F8C0020D307B0BDE8F04300F07EBA54F8043CEF
:103F9C00059354F8103C049354F8143C039354F8D0
:103FAC00183C029354F81C3C019354F8203C0093A9
:103FBC0054E90A2354E90C01FFF79CFF54F8303CF8
:103FCC005E65CEE7636A5A1C0DD023EAE3730021C9
:103FDC003846C3FB060151EAC333D4F8008004D140
:103FEC00404600F0EDF93034C9E74FF47A72002303
:103FFC00FCF76EF802460B4608F11800494600F033
:10400C00D5FBF0E73057000030570000A3530000F9
:10401C0008B50B4C0B4D4FF02002EFF3118382F3DC
:10402C001288BFF36F8F01F058FA2B78A06113B987
:10403C00FDF7ACFAEFE7FDF7D5F90028EBD1F7E780
:10404C008C030020D807002038B504464FF020031D
:10405C00EFF3118583F31288BFF36F8F01F0F5F93D
:10406C0048B10022826701F0E0F929460548BDE815
:10407C00384000F093B9D4E902329A4218BF0133A8
:10408C00A360F2E7D907002013B54FF02004EFF33B
:10409C00118184F31288BFF36F8F846844B1013CA3
:1040AC00846081F31188BFF36F8F002002B010BDC4
:1040BC0052EA030406D181F31188BFF36F8F6FF0BE
:1040CC000F00F3E7CDE900230246024800F048F95F
:1040DC00ECE700BFD907002038B5074D2C6854B168
:1040EC00FEF772FD054B04441C6128680021BDE8F5
:1040FC00384001F002BA38BDBC0300208C0300200C
:10410C0038B50D4D2B4653F8204F9C4200D004B9C6
:10411C00EC68AB6838B95A7BD20604D1A26912B9E3
:10412C00DA897F2A05D89C4202D02046FFF7D4FFBB
:10413C002346EB6138BD00BF8C03002070B590F9AD
:10414C000D20437B002A014604DA03F07F034373FE
:10415C0001F00FF94B7B154A63F07F0310464B734C
:10416C0050F8203F546A834208BF002323B9C1E9A9
:10417C000004216051620CE091F90E5093F90E602D
:10418C00B5420ED0AE420CDD5868C1E9003001607A
:10419C0059609068431A5842BDE870405841FFF787
:1041AC00AFBF9C42E3D01B68E0E700BF8C0300204C
:1041BC0070B490F90D30427B002B29DBD30627D14C
:1041CC0083692BBB134962F07F0242730A4652F893
:1041DC00204F944218BF23464C6A23B9C0E90024EF
:1041EC00206048620CE090F90E5093F90E60B542D5
:1041FC000AD0AE4208DD5A68C0E90032106058603F
:10420C0070BC0020FFF77CBFA342E7D01B68E4E73B
:10421C0070BC70478C03002008B590F90D20437BCF
:10422C00002A014604DA03F07F03437301F0A1F87E
:10423C00044B9868431A58425841BDE80840FFF7B0
:10424C005FBF00BF8C03002070B515461C460646A8
:10425C0001F0C3F8B4F1FF3F08BFB5F1FF3F08D040
:10426C002A46234606F118000249BDE8704000F0CA
:10427C009DBA70BDA3530000F8B504460D464FF02F
:10428C002003EFF3118783F31288BFF36F8F00269F
:10429C004FF4004C40F2E73031464FF47A72002371
:1042AC00E4FB0C01FBF714FFB44202DD0228B8BF9B
:1042BC000220074A074B1060074A98681E61156078
:1042CC00FFF70AFF87F31188BFF36F8FF8BD00BFAC
:1042DC00BC0300208C030020B803002038B54FF03D
:1042EC002003EFF3118583F31288BFF36F8F174B05
:1042FC00174A9C6811688C4207D12046FFF7ECFEE8
:10430C0085F31188BFF36F8F38BD00211160114AFE
:10431C001268C2B1E2897F2A15D8627BD20612D10B
:10432C000D4A94F90E10126891420CDB0B4A944220
:10433C0009D01A69824203DC2046FFF7FFFEDCE756
:10434C00121A1A61DCE70022FBE700BF8C03002085
:10435C00B4030020BC030020B8030020E8000020B8
:10436C0070B50C480C4D86682E600C461146DDE984
:10437C0004234FF02006EFF3118586F31288BFF368
:10438C006F8F8068FFF760FF2046BDE87040FDF737
:10439C006BB900BF8C030020B403002049B9EFF3C4
:1043AC00058030B9054BDA699B689A4201D0FDF75C
:1043BC005BB981F31188BFF36F8F70478C030020BA
:1043CC0010B54FF02002EFF3118482F31288BFF383
:1043DC006F8F427B510704D484F31188BFF36F8F26
:1043EC0010BD22F004024273FFF7E2FE21460248A0
:1043FC00BDE81040FFF7D2BFD907002070B50446C6
:10440C00183001F054F84FF02003EFF3118683F3CA
:10441C001288BFF36F8F94F90D20637B002A05DAA5
:10442C0003F07F036373204600F0A3FF0B4D637B07
:10443C00A86843F010036373031B58425841FFF7FD
:10444C005FFE86F31188BFF36F8FAB68A34203D175
:10445C00BDE8704001F021B870BD00BF8C03002096
:10446C004FF02003EFF3118183F31288BFF36F8FAA
:10447C00044B9A68D37B013BD37381F31188BFF350
:10448C006F8F70478C03002010B54FF02003EFF3B3
:10449C00118483F31288BFF36F8F084B9A68D37B18
:1044AC000133D3730020FFF72BFE84F31188BFF385
:1044BC006F8FBDE8104000F0F0BF00BF8C030020F0
:1044CC00044B002103F12002C3E908220846FFF740
:1044DC00D3BE00BF8C030020F8B54FF02003EFF3E0
:1044EC00118583F31288BFF36F8F19498868437B5A
:1044FC0003F07F03437300F03CFF8B685A7B084644
:10450C0062F07F025A7350F8202F4C6A824208BF27
:10451C00002222B9C3E9000423604B620CE093F93A
:10452C000E6092F90E70BE420ED0B7420CDD51688F
:10453C00C3E900210B6053600120FFF7E1FD284621
:10454C00BDE8F840FDF790B8A242E3D01268E0E76E
:10455C008C03002050EA01032DE9F04105460E467C
:10456C0003D1FFF7B9FF00202CE0831C71F1FF335E
:10457C002ADB00F0DEFF2C184FF02003EFF311883C
:10458C0083F31288BFF36F8F114F124BB86818600A
:10459C00FFF742FEB86810492A463346183000F03F
:1045AC0005F9BA68537B43F0100353734046FDF78B
:1045BC005BF800F0BEFF201A63EB0303012873F1D4
:1045CC000003D0DBBDE8F0816FF00104241AD3E7BF
:1045DC008C030020B4030020A3530000B1F1FF3F73
:1045EC0008BFB0F1FF3F08B506D1084B9868FFF73C
:1045FC0005FF4FF0FF3008BDFFF7ACFF4FF47A73A7
:10460C0080FB0303C00B40EA4340F4E78C0300201B
:10461C00014B9868704700BF8C0300202DE9F041D6
:10462C0004464FF02003EFF3118683F31288BFF397
:10463C006F8F037BD9070BD586F31188BFF36F8F70
:10464C00404080F311884FF0040002DFBDE8F08198
:10465C00437B1A0704D586F31188BFF36F8FF5E7F8
:10466C0023F0200242F00801D20920D14173A36843
:10467C0013B1204600F085FE04F1180000F017FF7E
:10468C0004F158074FF00008A56DBD4200D0B5B934
:10469C000120FFF735FD104B9B68A342DBD1EFF3F4
:1046AC000583002BD7D13046FCF7DEFFD3E703F0B0
:1046BC005F0343F00803437300F05BFED7E7284623
:1046CC0000F05FFE05F1180000F0F1FEC5F87880EF
:1046DC002846FFF76DFDD7E78C03002008B5064888
:1046EC00064A0749121A00F035FEBDE80840054A93
:1046FC000549064800F02EBE00000020C400002032
:10470C008C5A0000000000008C5A000000000020B1
:10471C00034B1B680BB9FEF757BA0020704700BF5C
:10472C00C003002010B5114B1C689C420AD1FFF746
:10473C00EFFF6FF000400E4B1B6913B19842A8BFFE
:10474C00184610BDFFF7E4FF002CF2D0D4E9043278
:10475C001B1A62EBE072B3F1004F72F10001E8DA60
:10476C00002AACBF18460020E5E700BFB4000020CB
:10477C008C03002030B570B10B4B5B6898420AD0AB
:10478C00036843B1D3E90421D0E90445121941EB84
:10479C000501C3E90421D0E9003213605A600023FB
:1047AC00C0E9003330BD00BFB4000020B3F1FF3FBF
:1047BC0008BFB2F1FF3FF8B504461D46164661D05E
:1047CC0081604FF02003EFF3118783F31288BFF35E
:1047DC006F8F013275F1FF3324DA3049D1E90020B3
:1047EC006FF001039B1A4FF0FF3262EB00009E1B2F
:1047FC0060EB0500012E70F1000301DA01260020A8
:10480C00C4E90460264ED6F800C07568B44508BFEC
:10481C004FF0000CBCF1000F0DD1C4E900652C6009
:10482C0074601CE0FFF774FF013645F10005361883
:10483C0045EBE070E4E7DCE90420D4E90431934271
:10484C0071EB000E1FDAD21ADCF8043060EB0100B9
:10485C00CCE90420C4E900C31C60CCF804403368E4
:10486C00B3420BD09C4209D1FFF75CFF18B10D4B42
:10487C001B69834202D00021FEF774F987F311887B
:10488C00BFF36F8FF8BD9B1A61EB0001AC45C4E917
:10489C000431C2D0DCF800C0BCE700BFE801002046
:1048AC00B40000208C0300202DE9F8430446FFF7E8
:1048BC0015FD4FF02003EFF3118683F31288BFF33D
:1048CC006F8F234FDFF88C80D8F80000224A3C60B1
:1048DC004045D2E9003E4FEAE4710BD050B1D0E92B
:1048EC00045CAC4271EB0C0916DA2D1B6CEB010C61
:1048FC00C0E9045CE3184EEB01010024C2E900316D
:10490C003C60FFF70FFF2146FEF72CF986F3118868
:10491C00BFF36F8FBDE8F883EB184EEBE571C2E97E
:10492C00003100220023C0E90423FFF723FF86F3A4
:10493C001188BFF36F8F836898474FF02003EFF314
:10494C00118683F31288BFF36F8F3C68641BBBE73F
:10495C00C0030020B4000020E801002010B54FF087
:10496C002003EFF3118483F31288BFF36F8FFFF7EB
:10497C00CFFE064A0346D2E90001181841EBE37159
:10498C0084F31188BFF36F8F10BD00BFE8010020C6
:10499C00014800F005B800BF5D5A000000207047C8
:1049AC000FB407B504A951F8040B0191FBF726FDD0
:1049BC0003B05DF804EB04B07047044608B5084634
:1049CC0011461A46A047FFF723FEFDF797F8038B15
:1049DC0013F0070305D10368002B0CBF0020032044
:1049EC007047022B05D1408BB0FA80F04009800053
:1049FC007047012B05D10368002B0CBF002005204C
:104A0C0070470020704710B50C4600B111B96FF01B
:104A1C00150010BD081D00F095F80028F9D1A36809
:104A2C00032BF6D9F3E72DE9F0410D46074619465D
:104A3C00281D90461E4600F096F8044638B13346C1
:104A4C00424629463846A446BDE8F0416047BDE8D9
:104A5C00F08110B44FF02004EFF3118284F312882C
:104A6C00BFF36F8F416110BC0121FBF7D5BC38B58A
:104A7C000C46054658B151B10B6843B14B6833B184
:104A8C001C22002100F03FF92C61002038BD6FF092
:104A9C001500FBE770B505460E46FFF7B4FF041E84
:104AAC0015DB4FF02003EFF3118283F31288BFF371
:104ABC006F8F6B8B2C8B4FF6FF718B4204F00704BE
:104ACC0007D182F31188BFF36F8F6FF00A04204671
:104ADC0070BD022C0CD101336B8382F31188BFF3B0
:104AEC006F8F0023224631462846FFF79CFFEEE7E6
:104AFC00062C14D8DFE804F004131313041A040072
:104B0C00002333606B683BB9C5E90066ACB9022180
:104B1C002846FBF781FCDAE71E606E60F6E782F34D
:104B2C001188BFF36F8F6FF00404D0E782F3118804
:104B3C00BFF36F8F6FF08504C9E782F31188BFF361
:104B4C006F8FC4E7034658B1426802F00302012A92
:104B5C0003D0032A04D1026812B100209860704778
:104B6C006FF0150070474268816002F00302032A5F
:104B7C004FF0000203460CBF006810465A607047A5
:104B8C00D0E9002130B54FF03333A2FB0324D51804
:104B9C0043EB0405A1FB0313521844EB0304521915
:104BAC0044F10002891843F10003C0E9001330BD41
:104BBC0010B50A68002A03460FDD013A0A601A682C
:104BCC0044680A20A2FB001200FB0422100F22F002
:104BDC007042C3E90012303010BD3020FCE72DE9E3
:104BEC00F84F9A46D3786F2B80460F461546A3F1A3
:104BFC00410B29D024D8582B0CBF10260A26DDF8DF
:104C0C0028903246002340463946FBF761FA092AC0
:104C1C00D4B21ED83034B045E4B277F1000709F8AD
:104C2C00014D01D3D14511D82B789B0605D5082E03
:104C3C0015D1AB7843F00803AB704846BDE8F88F4C
:104C4C0003F0F703702BD7E70826D8E780460F460A
:104C5C00D7E7BBF1190F94BF37345734DBE7102E6D
:104C6C00EBD1AB7843F01003E6E72DE9F0410746B2
:104C7C00884615461E461446B44205D30EB1601B39
:104C8C0008E02378002BFAD014F8010B4146B84702
:104C9C000028F1DABDE8F081704700F03EBB014618
:104CAC00006800F03ABB00210120FFF7F6BF08B501
:104CBC00FCF7BAFCBDE80840FCF792BD013903468D
:104CCC0011F8012F0AB91A70704703F8012BF7E796
:104CDC00034600201A5C02B970470130FAE703461C
:104CEC0000201A5C0AB1884200D170470130F8E705
:104CFC0010B5431E0A44914200D110BD11F8014B6E
:104D0C0003F8014FF7E7C9B202440346934200D1BE
:104D1C00704703F8011BF9E74FF0FF307047062886
:104D2C0008D14FF080430122C3F80025BFF34F8F09
:104D3C0020BFFDE77047002383F31188BFF36F8F0B
:104D4C0070470369C9B20C2201FB0233186C00F0E6
:104D5C00070070474FF02003EFF3118283F31288A2
:104D6C00BFF36F8F036803F0C00343F002030360CB
:104D7C0082F31188BFF36F8F704770B5C9B20369A6
:104D8C004FF02004EFF3118584F31288BFF36F8F7B
:104D9C000C2606FB0134246C14F0C00408D0A2428B
:104DAC0006D085F31188BFF36F8F4FF0FF3070BDC5
:104DBC0006FB013301221A6485F31188BFF36F8F50
:104DCC00436803EBC1035B6898470020EFE7802240
:104DDC00FFF7D3BFF8B5069F0469C9B24FF02005A1
:104DEC00EFF3118685F31288BFF36F8F0C2505FB4B
:104DFC000144256C05F0070CBCF1010F0CD12764A4
:104E0C0086F31188BFF36F8FC4E90E23436853F800
:104E1C00313098470020F8BD05F0C005AF4286F34D
:104E2C001188BFF36F8F0CBF6FF077004FF0FF301E
:104E3C00F1E713B580240094FFF7CCFF02B010BD4E
:104E4C0010B40069CBB21C2403FB0400002110BC7D
:104E5C001047002000F0A6B91046FFF7F5B84368DC
:104E6C005B68D3F810350B600020704743685B68B3
:104E7C0002EA010021EA0201C3F80805C3F80C1587
:104E8C000020704743685B680020C3F80815704722
:104E9C0043685B680020C3F80C15704743685A6878
:104EAC00D2F8043521EA03000B40C2F80805C2F819
:104EBC000C350020704710B503695868F8B188426A
:104ECC0019D19C6808685860A14200D198600020F4
:104EDC0008602AB15A680A609A68596002B99960E8
:104EEC00002010E0814206D1086820609868814259
:104EFC00EDD19C60EBE7044600680028F2D1002A53
:104F0C00E8D16FF0150010BDCA074368006905D4DD
:104F1C00C1F34202012A04D0022A0AD06FF0150014
:104F2C0070471B684FF0CC72C3F8242541620020F7
:104F3C0070471B684FF0CD62F6E702690B46D2E969
:104F4C00010183E803000020704743681B68D3F815
:104F5C008004C3F880047047436802691B68D3F867
:104F6C00100150B15269002012780A70C3F8100178
:104F7C00D3F8102101221A6070474FF0FF307047B0
:104F8C0002680346D2F8580140B95B689B0706D407
:104F9C00D2F82001003818BF01207047012070475B
:104FAC0042681368D3F80413C90518D5D3F8201137
:104FBC00A9B14FF02000EFF3118180F31288BFF3F9
:104FCC006F8FD3F8200130B10020C3F82001D3F843
:104FDC0020010120D86081F31188BFF36F8F5268D4
:104FEC00D20615D54FF02001EFF3118281F3128810
:104FFC00BFF36F8FD3F8581111B10021C3F800150E
:10500C004FF48001C3F8081382F31188BFF36F8F3C
:10501C007047704700F150039B009BB203F1804333
:10502C0003F5883300221A601B68704730B543685B
:10503C001360057A446804EBC504A34202D36FF0F5
:10504C00010030BD5C798C4201D00833F0E70020C0
:10505C00F7E72DE9F04100EB810101274FF0A04665
:10506C00814202D10020BDE8F081056805F07F0384
:10507C00C5F343247F2B4FEA154508BF4FF0FF3390
:10508C00192D6AD8DFE805F00D171C1F222E1F6999
:10509C0069696932556969696969696969695860D9
:1050AC006366C2F80C3503F01F0507FA05F5C6F860
:1050BC000855012502E0C2F814350025AC461CE069
:1050CC00C2F80835EFE7C2F81035F6E7C2F8083534
:1050DC00002503F01F0C07FA0CFCC6F80CC54FF0AA
:1050EC00010C0AE0C2F80C350125F2E7C2F80835CC
:1050FC00002CE2D10025AC46062450F804EB0EF44B
:10510C000058B8F1000FCEF3C11E4FEA042418BFAB
:10511C004FF0000C03F01F0344EA8E0418BF012566
:10512C0044EA0C0403F5E07344EA450446F82340D2
:10513C0096E7C2F80C35DBE7C2F860350568C5F3B5
:10514C008035002DD0D0AEE7C2F86435F6E7C2F852
:10515C006835F3E7C2F86C35F0E76FF0850082E74D
:10516C0008B50020FCF7C6FD4FF08053D3F8300192
:10517C00421C04BF4FF0704393F8E00F831F58425A
:10518C0058417047004700F0D8B908B50020FCF72B
:10519C0025FA08B9FCF714FA4FF080430022C3F843
:1051AC00182508BDFDF7BABE00F01F00800000F105
:1051BC00A040D0F8003723F4403343EA0143C0F851
:1051CC000037704730B5D0F804312BB10023C0F84C
:1051DC000431D0F80431012391F82F2022B300229E
:1051EC00C0F82421D0F82441C0F81C21D0F81C416F
:1051FC00C0F80821D0F80821002B79D0002281F8C2
:10520C002D2091F82F20002A37D18D6A4C6BA542A6
:10521C001FBF0523C0F80025C0F80035134683F0E6
:10522C00010381F82F3028E0D0F8244114B1C0F8E4
:10523C0024210EE0D0F81C216AB3C0F81C41D0F830
:10524C001C214A6B01324A63D0F8245145B1C0F895
:10525C002441D0F824210122426181F82F20CBE790
:10526C008C6AA24204D24C6AA25CC0F81C25C3E72B
:10527C0091F82C201AB10123C361002030BD0A6AB9
:10528C0012F0400F4FF0010203D0C26181F82D20C3
:10529C00F3E74261B0E7D0F80841002CACD0C0F87D
:1052AC000821D0F80841D0F82441002CBFD14A6B1A
:1052BC008C6AA242A0D24C6AD0F81855A5544A6BFD
:1052CC008C6A0132651EAA424A6308D10A6A5406E6
:1052DC0002D40222C0F80022012202628CE7A24210
:1052EC00FAD10A6A520687D5022381F82D30C4E719
:1052FC000120C3E7FEF7DABC08B5FFF7FBFF00207F
:10530C0008BD704740B1C368587810F001001EBF4B
:10531C001878B0FA80F040097047F8B505460E468B
:10532C004FF02003EFF3118783F31288BFF36F8FD5
:10533C00FFF76EF9314604462846FFF711FF87F355
:10534C001188BFF36F8F2046BDE8F840FCF7D6BB41
:10535C00FFF7D9BCFFF7CCBCEFF30580003818BFC2
:10536C000120704708B5FCF701F8BDE80840FFF7CD
:10537C0050BED0E9003213605A600023C0E90033FC
:10538C00704708B5FFF7F5FF437B23F00203437327
:10539C000023836008BD10B501464FF02003EFF3E6
:1053AC00118483F31288BFF36F8F10F80B3C13F04A
:1053BC00280F0DD151F8103C18380BB1FFF7E1FF55
:1053CC0011F80B3C23F0140301F80B3CFEF7F0FE34
:1053DC0084F31188BFF36F8F10BD38B504460D46AA
:1053EC00FEF71AFF637B43F002036373E5B1A5601C
:1053FC002B689D4209D16B68C4E900531C606C603A
:10540C0012E06A689342F6D01B68002BF3D094F933
:10541C000E2093F90E108A42F3D09142F1DD5A68B6
:10542C00C4E9003214605C6038BD10B54FF0200345
:10543C00EFF3118483F31288BFF36F8FFEF7B8FE7E
:10544C0084F31188BFF36F8F10BD38B54FF0200374
:10545C00EFF3118583F31288BFF36F8F0468A042BA
:10546C000DD034B12046FFF78CFF04F1180000F08A
:10547C001EF885F31188BFF36F8F204638BD0024CA
:10548C00F7E7034620B9EFF305820AB9FCF7ECB84D
:10549C0083F31188BFF36F8F70474FF02003EFF346
:1054AC00118083F31288BFF36F8FFFF7EABF10B53B
:1054BC004FF02002EFF3118482F31288BFF36F8F49
:1054CC0003683BB1FFF756F9002084F31188BFF352
:1054DC006F8F10BD6FF01500F7E710B54FF020037C
:1054EC00EFF3118483F31288BFF36F8FFFF71AF970
:1054FC0084F31188BFF36F8F10BD70B504460D4651
:10550C004FF02003EFF3118683F31288BFF36F8FF4
:10551C00FFF708F9012807DDA04205DBA042294668
:10552C00A8BF2046FDF71EFB86F31188BFF36F8FD3
:10553C0070BD08B5FFF712FA08BD08B1FCF7F0BB57
:04554C0070477047ED
:08555000C0ABFF7F0100000069
:10555800D11C000000000000E91D00009855000063
:10556800055300000000000061210000B055000054
:1055780009260000C855000049200000000000006E
:105588001D2A00000000000021230000E055000053
:10559800915900000058000010580000BC0000207D
:1055A8003402002042570000AE5900002C58000079
:1055B8003C580000BE000020880200203C57000034
:1055C800DA590000B0580000E4580000C20000207A
:1055D8003400002036570000C05900006058000011
:1055E80098580000C00000200C0000203057000030
:1055F800C13000009151000000000000B34C0000D1
:10560800C8550000AD4F0000513B0000915100000B
:1056180000000000B34C000000000000B34C000084
:105628002D3600009151000000000000B34C00002E
:1056380000000000B34C000000000000B34C000064
:1056480000000000B34C000000000000B34C000054
:1056580000000000B34C000000000000B34C000044
:1056680000000000B34C000000000000B34C000034
:1056780000000000B34C0000000000009D2A00005C
:1056880000000000B34C000000000000B34C000014
:1056980000000000B34C000000000000B34C000004
:1056A80000000000B34C000000000000B34C0000F4
:1056B80000000000B34C000000000000B34C0000E4
:1056C80000000000B34C000000000000B34C0000D4
:1056D80000000000B34C000000000000B34C0000C4
:1056E80000000000B34C000000000000B34C0000B4
:1056F80000000000B34C000000000000B34C0000A4
:1057080000000000B34C000000000000B34C000093
:1057180000000000B34C000000000000B34C000083
:0857280000000000B34C00007A
:1057300000800080FF7F00800080FF7F008000806D
:08574000FF7F00800080FF7F65
:10574800185A000000000000235A00000000000062
:105758002F5A000000000000385A00000000000026
:105768006059000000000000A0590000000000007F
:10577800F859000000000000BC59000000000000BB
:10578800CD590000000000007A5900000000000018
:105798005A5A00000000000077590000000000007D
:1057A8008D59000000000000E859000000000000CA
:0857B800FFFFFFFFFFFFFFFFF1
:1057C0000338FDD8704700000000002000000000F2
:1057D00000000B0602000000DC5700000000000083
:1057E0007E590000240002070000002086590000B6
:1057F0001E000B11711D0000411D00000000000083
:10580000911E0000B51D0000291F00005F4E000022
:10581000F51E0000DB4D00003F4E000000000000C0
:105820004F4D00000000000000000000FFFFFFFFE0
:10583000000000500000000000000000D521000022
:105840006B4E0000794E0000914E00009D4E00000E
:10585000A94E000099200000C34E00000000000087
:1058600000300040000000000000000000000000C8
:1058700000009801000001017C5800000030004049
:10588000885800000100000090580000020000004D
:105890001A000C001B000B00154F00000000000058
:1058A000AD2300000000000000000000FD22000009
:1058B000002000400200000000000000C05800006E
:1058C00000200040CC58000001000000D458000027
:1058D00004000000060000000800010005000200AE
:1058E00007000300654F000005270000574F000028
:1058F000AD240000474F0000F5FFFFFF58550000A2
:10590000585500008855000090550000985500003B
:10591000985500002D2D2D205354415254202D2DEB
:105920002D0A0D00493243206275732025732069CA
:1059300073206E6F72207265616479210A0D0053C5
:105940006C61766520726561647920666F72206390
:105950006F6D6D756E69636174696F6E210A0D00FC
:1059600063627072696E74665F7061636B616765B4
:1059700000286E696C2900706D006D707500464CD2
:105980004153485F30005352414D5F3000736F63A5
:1059900000636C6F636B4034303030303030300037
:1059A000636C6F636B5F636F6E74726F6C006770B4
:1059B000696F40353030303030303000693263004C
:1059C0006932634034303030333030300069326314
:1059D0005F6E7266785F74776900756172744034C7
:1059E0003030303230303000756172745F6E726604
:1059F000785F756172746500666174616C5F657271
:105A0000726F720000000000010000000101000040
:105A100001010101000000004E5246585F434C4F07
:105A2000434B004E5246585F4750494F5445004E35
:105A30005246585F505049004E5246585F5457499D
:105A4000005465726D696E616C0052545400534588
:105A500047474552006D61696E006F73002A2A2A1C
:105A600020426F6F74696E67205A65706879722082
:105A70004F53206275696C642076332E322E39398B
:0C5A80002D6E637332202A2A2A0A0000CF
:105A8C00A9490000FFFFFFFF254D00000C0000207E
:105A9C000C00002001000000010000001C00002090
:105AAC001C000020000000000100000000000000AD
:105ABC00000000000000000000C201000001030013
